{"abi":[{"type":"constructor","inputs":[{"name":"admin","type":"address","internalType":"address"}],"stateMutability":"nonpayable"},{"type":"function","name":"DEFAULT_ADMIN_ROLE","inputs":[],"outputs":[{"name":"","type":"bytes32","internalType":"bytes32"}],"stateMutability":"view"},{"type":"function","name":"TICKET_MINTER_ROLE","inputs":[],"outputs":[{"name":"","type":"bytes32","internalType":"bytes32"}],"stateMutability":"view"},{"type":"function","name":"approve","inputs":[{"name":"to","type":"address","internalType":"address"},{"name":"tokenId","type":"uint256","internalType":"uint256"}],"outputs":[],"stateMutability":"nonpayable"},{"type":"function","name":"balanceOf","inputs":[{"name":"owner","type":"address","internalType":"address"}],"outputs":[{"name":"","type":"uint256","internalType":"uint256"}],"stateMutability":"view"},{"type":"function","name":"getApproved","inputs":[{"name":"tokenId","type":"uint256","internalType":"uint256"}],"outputs":[{"name":"","type":"address","internalType":"address"}],"stateMutability":"view"},{"type":"function","name":"getRoleAdmin","inputs":[{"name":"role","type":"bytes32","internalType":"bytes32"}],"outputs":[{"name":"","type":"bytes32","internalType":"bytes32"}],"stateMutability":"view"},{"type":"function","name":"grantRole","inputs":[{"name":"role","type":"bytes32","internalType":"bytes32"},{"name":"account","type":"address","internalType":"address"}],"outputs":[],"stateMutability":"nonpayable"},{"type":"function","name":"hasRole","inputs":[{"name":"role","type":"bytes32","internalType":"bytes32"},{"name":"account","type":"address","internalType":"address"}],"outputs":[{"name":"","type":"bool","internalType":"bool"}],"stateMutability":"view"},{"type":"function","name":"isApprovedForAll","inputs":[{"name":"owner","type":"address","internalType":"address"},{"name":"operator","type":"address","internalType":"address"}],"outputs":[{"name":"","type":"bool","internalType":"bool"}],"stateMutability":"view"},{"type":"function","name":"mintTicket","inputs":[{"name":"to","type":"address","internalType":"address"},{"name":"listingId","type":"uint256","internalType":"uint256"},{"name":"metadataURI","type":"string","internalType":"string"}],"outputs":[{"name":"tokenId","type":"uint256","internalType":"uint256"}],"stateMutability":"nonpayable"},{"type":"function","name":"name","inputs":[],"outputs":[{"name":"","type":"string","internalType":"string"}],"stateMutability":"view"},{"type":"function","name":"nextTokenId","inputs":[],"outputs":[{"name":"","type":"uint256","internalType":"uint256"}],"stateMutability":"view"},{"type":"function","name":"ownerOf","inputs":[{"name":"tokenId","type":"uint256","internalType":"uint256"}],"outputs":[{"name":"","type":"address","internalType":"address"}],"stateMutability":"view"},{"type":"function","name":"renounceRole","inputs":[{"name":"role","type":"bytes32","internalType":"bytes32"},{"name":"callerConfirmation","type":"address","internalType":"address"}],"outputs":[],"stateMutability":"nonpayable"},{"type":"function","name":"revokeRole","inputs":[{"name":"role","type":"bytes32","internalType":"bytes32"},{"name":"account","type":"address","internalType":"address"}],"outputs":[],"stateMutability":"nonpayable"},{"type":"function","name":"safeTransferFrom","inputs":[{"name":"from","type":"address","internalType":"address"},{"name":"to","type":"address","internalType":"address"},{"name":"tokenId","type":"uint256","internalType":"uint256"}],"outputs":[],"stateMutability":"nonpayable"},{"type":"function","name":"safeTransferFrom","inputs":[{"name":"from","type":"address","internalType":"address"},{"name":"to","type":"address","internalType":"address"},{"name":"tokenId","type":"uint256","internalType":"uint256"},{"name":"data","type":"bytes","internalType":"bytes"}],"outputs":[],"stateMutability":"nonpayable"},{"type":"function","name":"setApprovalForAll","inputs":[{"name":"operator","type":"address","internalType":"address"},{"name":"approved","type":"bool","internalType":"bool"}],"outputs":[],"stateMutability":"nonpayable"},{"type":"function","name":"supportsInterface","inputs":[{"name":"interfaceId","type":"bytes4","internalType":"bytes4"}],"outputs":[{"name":"","type":"bool","internalType":"bool"}],"stateMutability":"view"},{"type":"function","name":"symbol","inputs":[],"outputs":[{"name":"","type":"string","internalType":"string"}],"stateMutability":"view"},{"type":"function","name":"ticketData","inputs":[{"name":"","type":"uint256","internalType":"uint256"}],"outputs":[{"name":"listingId","type":"uint256","internalType":"uint256"},{"name":"metadataURI","type":"string","internalType":"string"}],"stateMutability":"view"},{"type":"function","name":"ticketListingId","inputs":[{"name":"tokenId","type":"uint256","internalType":"uint256"}],"outputs":[{"name":"","type":"uint256","internalType":"uint256"}],"stateMutability":"view"},{"type":"function","name":"tokenURI","inputs":[{"name":"tokenId","type":"uint256","internalType":"uint256"}],"outputs":[{"name":"","type":"string","internalType":"string"}],"stateMutability":"view"},{"type":"function","name":"transferFrom","inputs":[{"name":"from","type":"address","internalType":"address"},{"name":"to","type":"address","internalType":"address"},{"name":"tokenId","type":"uint256","internalType":"uint256"}],"outputs":[],"stateMutability":"nonpayable"},{"type":"event","name":"Approval","inputs":[{"name":"owner","type":"address","indexed":true,"internalType":"address"},{"name":"approved","type":"address","indexed":true,"internalType":"address"},{"name":"tokenId","type":"uint256","indexed":true,"internalType":"uint256"}],"anonymous":false},{"type":"event","name":"ApprovalForAll","inputs":[{"name":"owner","type":"address","indexed":true,"internalType":"address"},{"name":"operator","type":"address","indexed":true,"internalType":"address"},{"name":"approved","type":"bool","indexed":false,"internalType":"bool"}],"anonymous":false},{"type":"event","name":"RoleAdminChanged","inputs":[{"name":"role","type":"bytes32","indexed":true,"internalType":"bytes32"},{"name":"previousAdminRole","type":"bytes32","indexed":true,"internalType":"bytes32"},{"name":"newAdminRole","type":"bytes32","indexed":true,"internalType":"bytes32"}],"anonymous":false},{"type":"event","name":"RoleGranted","inputs":[{"name":"role","type":"bytes32","indexed":true,"internalType":"bytes32"},{"name":"account","type":"address","indexed":true,"internalType":"address"},{"name":"sender","type":"address","indexed":true,"internalType":"address"}],"anonymous":false},{"type":"event","name":"RoleRevoked","inputs":[{"name":"role","type":"bytes32","indexed":true,"internalType":"bytes32"},{"name":"account","type":"address","indexed":true,"internalType":"address"},{"name":"sender","type":"address","indexed":true,"internalType":"address"}],"anonymous":false},{"type":"event","name":"TicketMinted","inputs":[{"name":"tokenId","type":"uint256","indexed":true,"internalType":"uint256"},{"name":"to","type":"address","indexed":true,"internalType":"address"},{"name":"listingId","type":"uint256","indexed":true,"internalType":"uint256"},{"name":"metadataURI","type":"string","indexed":false,"internalType":"string"}],"anonymous":false},{"type":"event","name":"Transfer","inputs":[{"name":"from","type":"address","indexed":true,"internalType":"address"},{"name":"to","type":"address","indexed":true,"internalType":"address"},{"name":"tokenId","type":"uint256","indexed":true,"internalType":"uint256"}],"anonymous":false},{"type":"error","name":"AccessControlBadConfirmation","inputs":[]},{"type":"error","name":"AccessControlUnauthorizedAccount","inputs":[{"name":"account","type":"address","internalType":"address"},{"name":"neededRole","type":"bytes32","internalType":"bytes32"}]},{"type":"error","name":"ERC721IncorrectOwner","inputs":[{"name":"sender","type":"address","internalType":"address"},{"name":"tokenId","type":"uint256","internalType":"uint256"},{"name":"owner","type":"address","internalType":"address"}]},{"type":"error","name":"ERC721InsufficientApproval","inputs":[{"name":"operator","type":"address","internalType":"address"},{"name":"tokenId","type":"uint256","internalType":"uint256"}]},{"type":"error","name":"ERC721InvalidApprover","inputs":[{"name":"approver","type":"address","internalType":"address"}]},{"type":"error","name":"ERC721InvalidOperator","inputs":[{"name":"operator","type":"address","internalType":"address"}]},{"type":"error","name":"ERC721InvalidOwner","inputs":[{"name":"owner","type":"address","internalType":"address"}]},{"type":"error","name":"ERC721InvalidReceiver","inputs":[{"name":"receiver","type":"address","internalType":"address"}]},{"type":"error","name":"ERC721InvalidSender","inputs":[{"name":"sender","type":"address","internalType":"address"}]},{"type":"error","name":"ERC721NonexistentToken","inputs":[{"name":"tokenId","type":"uint256","internalType":"uint256"}]}],"bytecode":{"object":"0x6080346200033f57601f1990601f906001600160401b036200198d38819003848101861684018381118582101762000261578492829160405283396020938491810103126200033f5751926001600160a01b03841684036200033f576200006562000343565b92601584527f42616e7368656520416363657373205469636b65740000000000000000000000818501526200009962000343565b906006825265084829ca892b60d31b81830152845184811162000261575f546001968782811c9216801562000334575b8483101462000242578186849311620002e1575b50839086831160011462000281575f9262000275575b50505f19600383901b1c191690861b175f555b8151938411620002615784548581811c9116801562000256575b828210146200024257838111620001fa575b50809284116001146200019257506200017595505f91908362000186575b50505f19600383901b1c191690821b1790555b6200016e8162000363565b50620003d3565b506040516114d89081620004758239f35b015190505f8062000150565b5f85815281812094978816915b828210620001e2575050918493918762000175989410620001c9575b505050811b01905562000163565b01515f1960f88460031b161c191690555f8080620001bb565b8087869782949787015181550196019401906200019f565b855f52815f208480870160051c82019284881062000238575b0160051c019086905b8281106200022c57505062000132565b5f81550186906200021c565b9250819262000213565b634e487b7160e01b5f52602260045260245ffd5b90607f169062000120565b634e487b7160e01b5f52604160045260245ffd5b015190505f80620000f3565b908a899416915f8052855f20925f5b87828210620002ca5750508411620002b1575b505050811b015f5562000106565b01515f1960f88460031b161c191690555f8080620002a3565b8385015186558c9790950194938401930162000290565b9091505f8052835f208680850160051c8201928686106200032a575b918a91869594930160051c01915b8281106200031b575050620000dd565b5f81558594508a91016200030b565b92508192620002fd565b91607f1691620000c9565b5f80fd5b60408051919082016001600160401b038111838210176200026157604052565b6001600160a01b03165f8181525f805160206200196d833981519152602052604090205460ff16620003ce575f8181525f805160206200196d83398151915260205260408120805460ff191660011790553391905f805160206200194d8339815191528180a4600190565b505f90565b6001600160a01b03165f8181527f1d1926339c995a3ea4b335bc01116a4a6622e0b5901d2601ec384d47cbce7b9c60205260409020547ff8cf5066e0a056f581f948c5d47b65a7b3d0ce3e0a4ca700e540e650a33333df919060ff166200046e57815f52600660205260405f20815f5260205260405f20600160ff1982541617905533915f805160206200194d8339815191525f80a4600190565b50505f9056fe6080604090808252600480361015610015575f80fd5b5f3560e01c91826301ffc9a714610d725750816303543fea1461085a57816306fdde03146107ad578163081812fc14610775578163095ea7b31461069a5781630e043164146106605781631543976d1461061c57816323b872dd14610605578163248a9ca3146105db5781632f2ff15d146105b357816336568abe1461056f578163394803fd1461052b57816342842e0e146104fd5781636352211e146104ce57816370a082311461047a57816375794a3c1461045c57816391d148541461041857816395d89b4114610335578163a217fddf1461031b578163a22cb46514610280578163b88d4fde14610216578163c87b56dd146101b5578163d547741f14610179575063e985e9c514610128575f80fd5b34610175578060031936011261017557602090610143610df6565b61014b610e0c565b9060018060a01b038091165f5260058452825f2091165f52825260ff815f20541690519015158152f35b5f80fd5b82346101755780600319360112610175576101b391356101ae600161019c610e0c565b93835f5260066020525f2001546111ec565b6112e4565b005b8234610175576020366003190112610175576102129135805f5260026020526101ea60018060a01b03835f2054161515611013565b5f5260086020526101ff6001825f2001610f1f565b9051918291602083526020830190610e22565b0390f35b346101755760803660031901126101755761022f610df6565b610237610e0c565b6044359060643567ffffffffffffffff81116101755736602382011215610175576101b39481602461026e93369301359101610fdd565b9261027a838383611056565b33611358565b8234610175578060031936011261017557610299610df6565b9060243591821515809303610175576001600160a01b03169283156103065750335f526005602052805f20835f52602052805f2060ff1981541660ff8416179055519081527f17307eab39ab6107e8899845ad3d59bd9653f200f220920489ca2b5937696c3160203392a3005b836024925191630b61174360e31b8352820152fd5b8234610175575f36600319011261017557602090515f8152f35b8234610175575f366003190112610175578051905f90826001926001549361035c85610e95565b90818452602095866001821691825f146103f657505060011461039b575b5050610212929161038c910385610efd565b51928284938452830190610e22565b9085925060015f527fb10e2d527612073b26eecdfd717e6a320cf44b4afac2b0732d9fcbe2b7fa0cf6915f925b8284106103de575050508201018161038c61037a565b8054848a0186015288955087949093019281016103c8565b60ff19168682015292151560051b8501909201925083915061038c905061037a565b8234610175578060031936011261017557602091610434610e0c565b90355f5260068352815f209060018060a01b03165f52825260ff815f20541690519015158152f35b8234610175575f366003190112610175576020906007549051908152f35b8234610175576020366003190112610175576001600160a01b0361049c610df6565b1680156104b857602092505f5260038252805f20549051908152f35b81516322718ad960e21b81525f81850152602490fd5b8234610175576020366003190112610175576104ec6020923561122c565b90516001600160a01b039091168152f35b8234610175576101b39061051036610e60565b9192519261051d84610ecd565b5f845261027a838383611056565b90503461017557602036600319011261017557355f526008602052805f2061021261055a600183549301610f1f565b83519384938452806020850152830190610e22565b8234610175578060031936011261017557610588610e0c565b90336001600160a01b038316036105a457506101b391356112e4565b5163334bd91960e11b81529050fd5b82346101755780600319360112610175576101b391356105d6600161019c610e0c565b611266565b823461017557602036600319011261017557602091355f52600682526001815f2001549051908152f35b34610175576101b361061636610e60565b91611056565b82346101755760203660031901126101755760209135805f526002835261064f60018060a01b03835f2054161515611013565b5f5260088252805f20549051908152f35b8234610175575f36600319011261017557602090517ff8cf5066e0a056f581f948c5d47b65a7b3d0ce3e0a4ca700e540e650a33333df8152f35b82346101755780600319360112610175576106b3610df6565b916024356106c08161122c565b33151580610762575b8061073b575b610725576001600160a01b039485169482918691167f8c5be1e5ebec7d5bd14f71427d1e84f3dd0314c0f7b2291e5b200ac8c7c3b9255f80a45f526020525f20906001600160601b0360a01b8254161790555f80f35b835163a9fbf51f60e01b81523381850152602490fd5b5060018060a01b0381165f526005602052835f20335f5260205260ff845f205416156106cf565b506001600160a01b0381163314156106c9565b82346101755760203660031901126101755781602092356107958161122c565b505f52825260018060a01b03815f2054169051908152f35b8234610175575f366003190112610175578051905f90825f54926107d084610e95565b808352602094600190866001821691825f146103f6575050600114610801575050610212929161038c910385610efd565b5f80805286935091907f290decd9548b62a8d60345a988386fc84ba6bc95484008f6362f93160ef3e5635b828410610842575050508201018161038c61037a565b8054848a01860152889550879490930192810161082c565b823461017557606036600319011261017557610874610df6565b67ffffffffffffffff92602492918335916044358681116101755736602382011215610175578082013590878211610175578681019087833692010111610175577ff8cf5066e0a056f581f948c5d47b65a7b3d0ce3e0a4ca700e540e650a33333df97885f5260209860068a52875f20335f528a5260ff885f20541615610d5557506007545f1994858214610d43576001809201998a600755895161091881610ecd565b5f81526001600160a01b0389811699908a15610d2e578d8f8c908f60028e95855f52818452825f205416928315159687610cfd575b50845f5260038152825f208c8154019055855f52525f20826001600160601b0360a01b8254161790557fddf252ad1be2c89b69c2b068fc378daa952ba7f163c4a11628f55a4df523b3ef5f80a4610ce8573b610bc2575b5089518a810181811086821117610bb057938093929160088f8f98978f528d83526109d0368c8c610fdd565b98818401998a525f52528c5f2090518155019451918251948511610b9f5750509183918c8c979694610a038d9754610e95565b601f8111610b2f575b5081601f8511600114610a8e575083927fc2dced6c804cbcaeaebd371dc6955420208f69c13f5400864d51339a5cc41ec2999a9284925f95610a83575b50501b9260031b1c19161790555b8282519384928c8452818d850152848401375f828201840152601f01601f19168101030190a451908152f35b015193505f80610a49565b91601f9a919a9493941984169a865f52835f20935f905b8d8210610afe575050847fc2dced6c804cbcaeaebd371dc6955420208f69c13f5400864d51339a5cc41ec29b9c10610ae6575b50505050811b019055610a57565b01519060f88460031b161c191690558d808080610ad8565b92979a9c93968392958392979a9d50819b508987015181550197019401928f9a979491938f9996939c9a9794610aa5565b91929496509294969750855f52815f2090601f860160051c8201928610610b95575b928c9694928f928f9a999795601f0160051c01905b818110610b735750610a0c565b80929597999a50849698505f9194935055018c979694928c9694928f92610b66565b9091508190610b51565b604190634e487b7160e01b5f52525ffd5b82604185634e487b7160e01b5f52525ffd5b918a999694928d8d849f9b849f9b999795819f5f91610c0e83925197889687958694630a85bd0160e11b9c8d875233908701528501526044840152608060648401526084830190610e22565b03925af15f9181610ca8575b50610c72578d8d8d8d8d3d15610c6a573d90610c3582610fc1565b91610c4284519384610efd565b82523d5f8284013e5b81519182610c67575050505191633250574960e11b8352820152fd5b01fd5b606090610c4b565b63ffffffff60e09e939597999d9496989b9c9a9e1b1603610c93578c6109a4565b8951633250574960e11b815291820188905290fd5b9091508a81813d8311610ce1575b610cc08183610efd565b8101031261017557516001600160e01b03198116810361017557908f610c1a565b503d610cb6565b8b516339e3563760e11b81525f818601528390fd5b5f87815260046020526040902080546001600160a01b0319169055845f5260038252835f209081540190558f61094d565b8c51633250574960e11b81525f818701528490fd5b60118a91634e487b7160e01b5f52525ffd5b875163e2517d3f60e01b81523381870152808a0191909152604490fd5b903461017557602036600319011261017557359063ffffffff60e01b821680920361017557602091637965db0b60e01b8114908115610db3575b5015158152f35b6380ac58cd60e01b811491508115610de5575b8115610dd4575b5083610dac565b6301ffc9a760e01b14905083610dcd565b635b5e139f60e01b81149150610dc6565b600435906001600160a01b038216820361017557565b602435906001600160a01b038216820361017557565b91908251928382525f5b848110610e4c575050825f602080949584010152601f8019910116010190565b602081830181015184830182015201610e2c565b6060906003190112610175576001600160a01b0390600435828116810361017557916024359081168103610175579060443590565b90600182811c92168015610ec3575b6020831014610eaf57565b634e487b7160e01b5f52602260045260245ffd5b91607f1691610ea4565b6020810190811067ffffffffffffffff821117610ee957604052565b634e487b7160e01b5f52604160045260245ffd5b90601f8019910116810190811067ffffffffffffffff821117610ee957604052565b9060405191825f8254610f3181610e95565b908184526020946001916001811690815f14610f9f5750600114610f61575b505050610f5f92500383610efd565b565b5f90815285812095935091905b818310610f87575050610f5f93508201015f8080610f50565b85548884018501529485019487945091830191610f6e565b92505050610f5f94925060ff191682840152151560051b8201015f8080610f50565b67ffffffffffffffff8111610ee957601f01601f191660200190565b929192610fe982610fc1565b91610ff76040519384610efd565b829481845281830111610175578281602093845f960137010152565b1561101a57565b60405162461bcd60e51b8152602060048201526014602482015273151bdad95b88191bd95cc81b9bdd08195e1a5cdd60621b6044820152606490fd5b6001600160a01b0391821692909183156111d457815f52602092600284528260409583875f2054169533151580611142575b5060029087611111575b825f5260038152885f2060018154019055835f5252865f20816001600160601b0360a01b825416179055857fddf252ad1be2c89b69c2b068fc378daa952ba7f163c4a11628f55a4df523b3ef5f80a416928383036110f05750505050565b6064945051926364283d7b60e01b8452600484015260248301526044820152fd5b5f84815260046020526040812080546001600160a01b03191690558881526003825289902080545f19019055611092565b9192509080611193575b1561115a579084915f611088565b868587611177576024915190637e27328960e01b82526004820152fd5b604491519063177e802f60e01b82523360048301526024820152fd5b5033861480156111b8575b8061114c5750845f52600481523384885f2054161461114c565b50855f5260058152865f20335f52815260ff875f20541661119e565b604051633250574960e11b81525f6004820152602490fd5b805f52600660205260405f20335f5260205260ff60405f2054161561120e5750565b6044906040519063e2517d3f60e01b82523360048301526024820152fd5b5f818152600260205260409020546001600160a01b031690811561124e575090565b60249060405190637e27328960e01b82526004820152fd5b90815f52600660205260405f209060018060a01b031690815f5260205260ff60405f205416155f146112de57815f52600660205260405f20815f5260205260405f20600160ff1982541617905533917f2f8788117e7eff1d82e926ec794901d17c78024a50270940304540a733656f0d5f80a4600190565b50505f90565b90815f52600660205260405f209060018060a01b031690815f5260205260ff60405f2054165f146112de57815f52600660205260405f20815f5260205260405f2060ff19815416905533917ff6391f5c32d9c69d2a47ea670b442974b53935d1edc7fd64eb21e047a839171b5f80a4600190565b9293909193843b61136b575b5050505050565b604051630a85bd0160e11b8082526001600160a01b0395861660048301529385166024820152604481019190915260806064820152602095949093169392908590829081906113be906084830190610e22565b03815f885af15f9181611462575b5061142b575050503d5f14611423573d916113e683610fc1565b926113f46040519485610efd565b83523d5f8285013e5b8251928361141e57604051633250574960e11b815260048101849052602490fd5b019050fd5b6060916113fd565b9193506001600160e01b03199091160361144a57505f80808080611364565b60249060405190633250574960e11b82526004820152fd5b9091508581813d831161149b575b61147a8183610efd565b8101031261017557516001600160e01b03198116810361017557905f6113cc565b503d61147056fea264697066735822122067d6bcdd46df7263958ed8c43cac1c8b92bbc39f120c0b64cff1210b4ae6951464736f6c634300081700332f8788117e7eff1d82e926ec794901d17c78024a50270940304540a733656f0d54cdd369e4e8a8515e52ca72ec816c2101831ad1f18bf44102ed171459c9b4f8","linkReferences":{}},"methodIdentifiers":{"DEFAULT_ADMIN_ROLE()":"a217fddf","TICKET_MINTER_ROLE()":"0e043164","approve(address,uint256)":"095ea7b3","balanceOf(address)":"70a08231","getApproved(uint256)":"081812fc","getRoleAdmin(bytes32)":"248a9ca3","grantRole(bytes32,address)":"2f2ff15d","hasRole(bytes32,address)":"91d14854","isApprovedForAll(address,address)":"e985e9c5","mintTicket(address,uint256,string)":"03543fea","name()":"06fdde03","nextTokenId()":"75794a3c","ownerOf(uint256)":"6352211e","renounceRole(bytes32,address)":"36568abe","revokeRole(bytes32,address)":"d547741f","safeTransferFrom(address,address,uint256)":"42842e0e","safeTransferFrom(address,address,uint256,bytes)":"b88d4fde","setApprovalForAll(address,bool)":"a22cb465","supportsInterface(bytes4)":"01ffc9a7","symbol()":"95d89b41","ticketData(uint256)":"394803fd","ticketListingId(uint256)":"1543976d","tokenURI(uint256)":"c87b56dd","transferFrom(address,address,uint256)":"23b872dd"},"id":42}