{"abi":[{"type":"constructor","inputs":[{"name":"admin","type":"address","internalType":"address"},{"name":"treasury_","type":"address","internalType":"address"},{"name":"platformFeeBps_","type":"uint96","internalType":"uint96"},{"name":"ticketNFT_","type":"address","internalType":"contract BansheeTicketNFT"},{"name":"bansheeToken_","type":"address","internalType":"contract BansheeToken"}],"stateMutability":"nonpayable"},{"type":"function","name":"ADMIN_ROLE","inputs":[],"outputs":[{"name":"","type":"bytes32","internalType":"bytes32"}],"stateMutability":"view"},{"type":"function","name":"AI_AGENT_ROLE","inputs":[],"outputs":[{"name":"","type":"bytes32","internalType":"bytes32"}],"stateMutability":"view"},{"type":"function","name":"BPS_DENOMINATOR","inputs":[],"outputs":[{"name":"","type":"uint96","internalType":"uint96"}],"stateMutability":"view"},{"type":"function","name":"DEFAULT_ADMIN_ROLE","inputs":[],"outputs":[{"name":"","type":"bytes32","internalType":"bytes32"}],"stateMutability":"view"},{"type":"function","name":"TREASURY_ROLE","inputs":[],"outputs":[{"name":"","type":"bytes32","internalType":"bytes32"}],"stateMutability":"view"},{"type":"function","name":"agentAirdropTicket","inputs":[{"name":"listingId","type":"uint256","internalType":"uint256"},{"name":"recipient","type":"address","internalType":"address"},{"name":"reason","type":"string","internalType":"string"}],"outputs":[{"name":"ticketId","type":"uint256","internalType":"uint256"}],"stateMutability":"nonpayable"},{"type":"function","name":"agentCreateListingFromSubmission","inputs":[{"name":"submissionId","type":"uint256","internalType":"uint256"},{"name":"priceWei","type":"uint256","internalType":"uint256"},{"name":"maxTickets","type":"uint256","internalType":"uint256"},{"name":"ticketURI","type":"string","internalType":"string"}],"outputs":[{"name":"listingId","type":"uint256","internalType":"uint256"}],"stateMutability":"nonpayable"},{"type":"function","name":"artists","inputs":[{"name":"","type":"address","internalType":"address"}],"outputs":[{"name":"wallet","type":"address","internalType":"address"},{"name":"artistURI","type":"string","internalType":"string"},{"name":"active","type":"bool","internalType":"bool"},{"name":"verified","type":"bool","internalType":"bool"},{"name":"registeredAt","type":"uint64","internalType":"uint64"},{"name":"verifiedAt","type":"uint64","internalType":"uint64"}],"stateMutability":"view"},{"type":"function","name":"bansheeToken","inputs":[],"outputs":[{"name":"","type":"address","internalType":"contract BansheeToken"}],"stateMutability":"view"},{"type":"function","name":"getRoleAdmin","inputs":[{"name":"role","type":"bytes32","internalType":"bytes32"}],"outputs":[{"name":"","type":"bytes32","internalType":"bytes32"}],"stateMutability":"view"},{"type":"function","name":"grantRole","inputs":[{"name":"role","type":"bytes32","internalType":"bytes32"},{"name":"account","type":"address","internalType":"address"}],"outputs":[],"stateMutability":"nonpayable"},{"type":"function","name":"hasRole","inputs":[{"name":"role","type":"bytes32","internalType":"bytes32"},{"name":"account","type":"address","internalType":"address"}],"outputs":[{"name":"","type":"bool","internalType":"bool"}],"stateMutability":"view"},{"type":"function","name":"listings","inputs":[{"name":"","type":"uint256","internalType":"uint256"}],"outputs":[{"name":"id","type":"uint256","internalType":"uint256"},{"name":"submissionId","type":"uint256","internalType":"uint256"},{"name":"artist","type":"address","internalType":"address"},{"name":"listingType","type":"uint8","internalType":"enum BansheeProofOfPerformance.ListingType"},{"name":"title","type":"string","internalType":"string"},{"name":"ticketURI","type":"string","internalType":"string"},{"name":"metadataURI","type":"string","internalType":"string"},{"name":"greenfieldBucket","type":"string","internalType":"string"},{"name":"greenfieldObject","type":"string","internalType":"string"},{"name":"greenfieldGroup","type":"string","internalType":"string"},{"name":"priceWei","type":"uint256","internalType":"uint256"},{"name":"maxTickets","type":"uint256","internalType":"uint256"},{"name":"ticketsMinted","type":"uint256","internalType":"uint256"},{"name":"totalPlays","type":"uint256","internalType":"uint256"},{"name":"totalRewardsMinted","type":"uint256","internalType":"uint256"},{"name":"active","type":"bool","internalType":"bool"}],"stateMutability":"view"},{"type":"function","name":"mintArtistPerformanceReward","inputs":[{"name":"listingId","type":"uint256","internalType":"uint256"},{"name":"amount","type":"uint256","internalType":"uint256"},{"name":"epoch","type":"uint256","internalType":"uint256"},{"name":"proofHash","type":"bytes32","internalType":"bytes32"}],"outputs":[],"stateMutability":"nonpayable"},{"type":"function","name":"nextListingId","inputs":[],"outputs":[{"name":"","type":"uint256","internalType":"uint256"}],"stateMutability":"view"},{"type":"function","name":"nextSubmissionId","inputs":[],"outputs":[{"name":"","type":"uint256","internalType":"uint256"}],"stateMutability":"view"},{"type":"function","name":"platformFeeBps","inputs":[],"outputs":[{"name":"","type":"uint96","internalType":"uint96"}],"stateMutability":"view"},{"type":"function","name":"purchaseTicket","inputs":[{"name":"listingId","type":"uint256","internalType":"uint256"}],"outputs":[{"name":"ticketId","type":"uint256","internalType":"uint256"}],"stateMutability":"payable"},{"type":"function","name":"recordPerformance","inputs":[{"name":"listingId","type":"uint256","internalType":"uint256"},{"name":"listener","type":"address","internalType":"address"},{"name":"playCount","type":"uint256","internalType":"uint256"},{"name":"proofHash","type":"bytes32","internalType":"bytes32"},{"name":"source","type":"string","internalType":"string"}],"outputs":[],"stateMutability":"nonpayable"},{"type":"function","name":"registerArtist","inputs":[{"name":"artistURI","type":"string","internalType":"string"}],"outputs":[],"stateMutability":"nonpayable"},{"type":"function","name":"renounceRole","inputs":[{"name":"role","type":"bytes32","internalType":"bytes32"},{"name":"callerConfirmation","type":"address","internalType":"address"}],"outputs":[],"stateMutability":"nonpayable"},{"type":"function","name":"requestGreenfieldAccess","inputs":[{"name":"listingId","type":"uint256","internalType":"uint256"},{"name":"ticketId","type":"uint256","internalType":"uint256"}],"outputs":[],"stateMutability":"nonpayable"},{"type":"function","name":"reviewSubmission","inputs":[{"name":"submissionId","type":"uint256","internalType":"uint256"},{"name":"approved","type":"bool","internalType":"bool"},{"name":"reviewURI","type":"string","internalType":"string"}],"outputs":[],"stateMutability":"nonpayable"},{"type":"function","name":"revokeRole","inputs":[{"name":"role","type":"bytes32","internalType":"bytes32"},{"name":"account","type":"address","internalType":"address"}],"outputs":[],"stateMutability":"nonpayable"},{"type":"function","name":"setArtistVerification","inputs":[{"name":"artistWallet","type":"address","internalType":"address"},{"name":"verified","type":"bool","internalType":"bool"},{"name":"note","type":"string","internalType":"string"}],"outputs":[],"stateMutability":"nonpayable"},{"type":"function","name":"setListingActive","inputs":[{"name":"listingId","type":"uint256","internalType":"uint256"},{"name":"active","type":"bool","internalType":"bool"}],"outputs":[],"stateMutability":"nonpayable"},{"type":"function","name":"setPlatformFeeBps","inputs":[{"name":"platformFeeBps_","type":"uint96","internalType":"uint96"}],"outputs":[],"stateMutability":"nonpayable"},{"type":"function","name":"setTreasury","inputs":[{"name":"treasury_","type":"address","internalType":"address"}],"outputs":[],"stateMutability":"nonpayable"},{"type":"function","name":"submissions","inputs":[{"name":"","type":"uint256","internalType":"uint256"}],"outputs":[{"name":"id","type":"uint256","internalType":"uint256"},{"name":"artist","type":"address","internalType":"address"},{"name":"listingType","type":"uint8","internalType":"enum BansheeProofOfPerformance.ListingType"},{"name":"title","type":"string","internalType":"string"},{"name":"metadataURI","type":"string","internalType":"string"},{"name":"greenfieldBucket","type":"string","internalType":"string"},{"name":"greenfieldObject","type":"string","internalType":"string"},{"name":"greenfieldGroup","type":"string","internalType":"string"},{"name":"reviewURI","type":"string","internalType":"string"},{"name":"status","type":"uint8","internalType":"enum BansheeProofOfPerformance.SubmissionStatus"},{"name":"createdAt","type":"uint64","internalType":"uint64"},{"name":"reviewedAt","type":"uint64","internalType":"uint64"}],"stateMutability":"view"},{"type":"function","name":"submitContent","inputs":[{"name":"listingType","type":"uint8","internalType":"enum BansheeProofOfPerformance.ListingType"},{"name":"title","type":"string","internalType":"string"},{"name":"metadataURI","type":"string","internalType":"string"},{"name":"greenfieldBucket","type":"string","internalType":"string"},{"name":"greenfieldObject","type":"string","internalType":"string"},{"name":"greenfieldGroup","type":"string","internalType":"string"}],"outputs":[{"name":"submissionId","type":"uint256","internalType":"uint256"}],"stateMutability":"nonpayable"},{"type":"function","name":"supportsInterface","inputs":[{"name":"interfaceId","type":"bytes4","internalType":"bytes4"}],"outputs":[{"name":"","type":"bool","internalType":"bool"}],"stateMutability":"view"},{"type":"function","name":"ticketNFT","inputs":[],"outputs":[{"name":"","type":"address","internalType":"contract BansheeTicketNFT"}],"stateMutability":"view"},{"type":"function","name":"treasury","inputs":[],"outputs":[{"name":"","type":"address","internalType":"address"}],"stateMutability":"view"},{"type":"function","name":"usedPerformanceProofs","inputs":[{"name":"","type":"bytes32","internalType":"bytes32"}],"outputs":[{"name":"","type":"bool","internalType":"bool"}],"stateMutability":"view"},{"type":"event","name":"AgentTicketAirdropped","inputs":[{"name":"listingId","type":"uint256","indexed":true,"internalType":"uint256"},{"name":"ticketId","type":"uint256","indexed":true,"internalType":"uint256"},{"name":"recipient","type":"address","indexed":true,"internalType":"address"},{"name":"artist","type":"address","indexed":false,"internalType":"address"},{"name":"reason","type":"string","indexed":false,"internalType":"string"}],"anonymous":false},{"type":"event","name":"ArtistRegistered","inputs":[{"name":"artist","type":"address","indexed":true,"internalType":"address"},{"name":"artistURI","type":"string","indexed":false,"internalType":"string"}],"anonymous":false},{"type":"event","name":"ArtistVerificationUpdated","inputs":[{"name":"artist","type":"address","indexed":true,"internalType":"address"},{"name":"verified","type":"bool","indexed":false,"internalType":"bool"},{"name":"note","type":"string","indexed":false,"internalType":"string"}],"anonymous":false},{"type":"event","name":"GreenfieldAccessRequested","inputs":[{"name":"listingId","type":"uint256","indexed":true,"internalType":"uint256"},{"name":"ticketId","type":"uint256","indexed":true,"internalType":"uint256"},{"name":"holder","type":"address","indexed":true,"internalType":"address"},{"name":"greenfieldBucket","type":"string","indexed":false,"internalType":"string"},{"name":"greenfieldObject","type":"string","indexed":false,"internalType":"string"},{"name":"greenfieldGroup","type":"string","indexed":false,"internalType":"string"}],"anonymous":false},{"type":"event","name":"ListingCreated","inputs":[{"name":"listingId","type":"uint256","indexed":true,"internalType":"uint256"},{"name":"submissionId","type":"uint256","indexed":true,"internalType":"uint256"},{"name":"artist","type":"address","indexed":true,"internalType":"address"},{"name":"listingType","type":"uint8","indexed":false,"internalType":"enum BansheeProofOfPerformance.ListingType"},{"name":"title","type":"string","indexed":false,"internalType":"string"},{"name":"priceWei","type":"uint256","indexed":false,"internalType":"uint256"},{"name":"maxTickets","type":"uint256","indexed":false,"internalType":"uint256"},{"name":"greenfieldBucket","type":"string","indexed":false,"internalType":"string"},{"name":"greenfieldObject","type":"string","indexed":false,"internalType":"string"},{"name":"greenfieldGroup","type":"string","indexed":false,"internalType":"string"}],"anonymous":false},{"type":"event","name":"ListingStatusUpdated","inputs":[{"name":"listingId","type":"uint256","indexed":true,"internalType":"uint256"},{"name":"active","type":"bool","indexed":false,"internalType":"bool"}],"anonymous":false},{"type":"event","name":"PerformanceRecorded","inputs":[{"name":"listingId","type":"uint256","indexed":true,"internalType":"uint256"},{"name":"artist","type":"address","indexed":true,"internalType":"address"},{"name":"listener","type":"address","indexed":true,"internalType":"address"},{"name":"playCount","type":"uint256","indexed":false,"internalType":"uint256"},{"name":"proofHash","type":"bytes32","indexed":false,"internalType":"bytes32"},{"name":"source","type":"string","indexed":false,"internalType":"string"}],"anonymous":false},{"type":"event","name":"PerformanceRewardMinted","inputs":[{"name":"listingId","type":"uint256","indexed":true,"internalType":"uint256"},{"name":"artist","type":"address","indexed":true,"internalType":"address"},{"name":"amount","type":"uint256","indexed":false,"internalType":"uint256"},{"name":"epoch","type":"uint256","indexed":true,"internalType":"uint256"},{"name":"proofHash","type":"bytes32","indexed":false,"internalType":"bytes32"}],"anonymous":false},{"type":"event","name":"PlatformFeeUpdated","inputs":[{"name":"platformFeeBps","type":"uint96","indexed":false,"internalType":"uint96"}],"anonymous":false},{"type":"event","name":"RoleAdminChanged","inputs":[{"name":"role","type":"bytes32","indexed":true,"internalType":"bytes32"},{"name":"previousAdminRole","type":"bytes32","indexed":true,"internalType":"bytes32"},{"name":"newAdminRole","type":"bytes32","indexed":true,"internalType":"bytes32"}],"anonymous":false},{"type":"event","name":"RoleGranted","inputs":[{"name":"role","type":"bytes32","indexed":true,"internalType":"bytes32"},{"name":"account","type":"address","indexed":true,"internalType":"address"},{"name":"sender","type":"address","indexed":true,"internalType":"address"}],"anonymous":false},{"type":"event","name":"RoleRevoked","inputs":[{"name":"role","type":"bytes32","indexed":true,"internalType":"bytes32"},{"name":"account","type":"address","indexed":true,"internalType":"address"},{"name":"sender","type":"address","indexed":true,"internalType":"address"}],"anonymous":false},{"type":"event","name":"SubmissionCreated","inputs":[{"name":"submissionId","type":"uint256","indexed":true,"internalType":"uint256"},{"name":"artist","type":"address","indexed":true,"internalType":"address"},{"name":"listingType","type":"uint8","indexed":true,"internalType":"enum BansheeProofOfPerformance.ListingType"},{"name":"title","type":"string","indexed":false,"internalType":"string"},{"name":"metadataURI","type":"string","indexed":false,"internalType":"string"},{"name":"greenfieldBucket","type":"string","indexed":false,"internalType":"string"},{"name":"greenfieldObject","type":"string","indexed":false,"internalType":"string"},{"name":"greenfieldGroup","type":"string","indexed":false,"internalType":"string"}],"anonymous":false},{"type":"event","name":"SubmissionReviewed","inputs":[{"name":"submissionId","type":"uint256","indexed":true,"internalType":"uint256"},{"name":"artist","type":"address","indexed":true,"internalType":"address"},{"name":"status","type":"uint8","indexed":false,"internalType":"enum BansheeProofOfPerformance.SubmissionStatus"},{"name":"reviewURI","type":"string","indexed":false,"internalType":"string"}],"anonymous":false},{"type":"event","name":"TicketPurchased","inputs":[{"name":"listingId","type":"uint256","indexed":true,"internalType":"uint256"},{"name":"ticketId","type":"uint256","indexed":true,"internalType":"uint256"},{"name":"buyer","type":"address","indexed":true,"internalType":"address"},{"name":"artist","type":"address","indexed":false,"internalType":"address"},{"name":"priceWei","type":"uint256","indexed":false,"internalType":"uint256"}],"anonymous":false},{"type":"event","name":"TreasuryUpdated","inputs":[{"name":"treasury","type":"address","indexed":true,"internalType":"address"}],"anonymous":false},{"type":"error","name":"AccessControlBadConfirmation","inputs":[]},{"type":"error","name":"AccessControlUnauthorizedAccount","inputs":[{"name":"account","type":"address","internalType":"address"},{"name":"neededRole","type":"bytes32","internalType":"bytes32"}]},{"type":"error","name":"ArtistNotRegistered","inputs":[]},{"type":"error","name":"ArtistNotVerified","inputs":[]},{"type":"error","name":"DuplicateProof","inputs":[]},{"type":"error","name":"InvalidAddress","inputs":[]},{"type":"error","name":"InvalidFee","inputs":[]},{"type":"error","name":"InvalidListing","inputs":[]},{"type":"error","name":"InvalidState","inputs":[]},{"type":"error","name":"InvalidSubmission","inputs":[]},{"type":"error","name":"ListingInactive","inputs":[]},{"type":"error","name":"ReentrancyGuardReentrantCall","inputs":[]},{"type":"error","name":"SoldOut","inputs":[]},{"type":"error","name":"TransferFailed","inputs":[]},{"type":"error","name":"WrongPayment","inputs":[]}],"bytecode":{"object":"0x60c034620001a257601f6200339738819003918201601f1916830191906001600160401b03831184841017620001a6578160a09285926040958652833981010312620001a2576200005082620001ba565b6200005e60208401620001ba565b8284015193906001600160601b03851690818603620001a25760608301516001600160a01b038082169491939091858503620001a257608001519482861690818703620001a2576001805583881615801562000197575b6200018657159081156200017c575b506200016b57612710106200015a571660a095861b6001600160a01b03191617600255608052909252906200011d90620000fe81620001cf565b506200010a816200023f565b506200011681620002df565b5062000379565b5051612f4390816200041482396080518181816104b40152818161071f015281816108570152610b27015260a0518181816101a901526113150152f35b85516358d620b360e01b8152600490fd5b865163e6c4247b60e01b8152600490fd5b9050155f620000c4565b885163e6c4247b60e01b8152600490fd5b5083851615620000b5565b5f80fd5b634e487b7160e01b5f52604160045260245ffd5b51906001600160a01b0382168203620001a257565b6001600160a01b03165f8181525f8051602062003377833981519152602052604090205460ff166200023a575f8181525f805160206200337783398151915260205260408120805460ff191660011790553391905f80516020620033578339815191528180a4600190565b505f90565b6001600160a01b03165f8181527f7d7ffb7a348e1c6a02869081a26547b49160dd3df72d1d75a570eb9b698292ec60205260409020547fa49807205ce4d355092ef5a8a18f56e8913cf4a201fbe287825b095693c21775919060ff16620002d957815f525f60205260405f20815f5260205260405f20600160ff1982541617905533915f80516020620033578339815191525f80a4600190565b50505f90565b6001600160a01b03165f8181527fe2cba31f4bc11a0ffdcf6285f6faa577a0ac170ef92004a78f001343d31b3b9760205260409020547ffaa623ff490ff9197b5ad863cd7f72b33e2e131994d09bd7260d7cd680faad79919060ff16620002d957815f525f60205260405f20815f5260205260405f20600160ff1982541617905533915f80516020620033578339815191525f80a4600190565b6001600160a01b03165f8181527f9e5c930214a7bc8a78d251e617445bcdba028aed2ede5828cc6cd6c8261656f560205260409020547fe1dcbdb91df27212a29bc27177c840cf2f819ecf2187432e1fac86c2dd5dfca9919060ff16620002d957815f525f60205260405f20815f5260205260405f20600160ff1982541617905533915f80516020620033578339815191525f80a460019056fe6080806040526004361015610012575f80fd5b5f905f3560e01c90816301ffc9a71461289557508063069dab8f146127fc57806317c1f70914611f5a57806322dcd13e14611f3a578063248a9ca314611f0e57806325b8e7eb14611ed45780632f2ff15d14611e9857806335b9690114611e7b57806336568abe14611e3257806345333971146116495780635549756c146115ca5780635c434ad3146114b457806360b2cf101461141a57806361d027b3146113f25780636ce2348a146112b857806375b238fc1461127d57806380951c561461124e5780638ff0346e14610fef57806391d1485414610fa65780639355d41914610dd8578063a217fddf14610dbc578063a927621514610c97578063a986afd0146109ea578063aaccf1ec146109cc578063ad73349e14610886578063b393391b14610841578063b948348c14610650578063d11a57ec14610615578063d547741f146105d4578063db463733146103e1578063de74e57b14610274578063e1a4521814610257578063f0f44260146101db5763fd6ab5bc14610194575f80fd5b346101d857806003193601126101d8576040517f00000000000000000000000000000000000000000000000000000000000000006001600160a01b03168152602090f35b80fd5b50346101d85760203660031901126101d8576101f56128e8565b6101fd612d27565b6001600160a01b0316801561024557600280546001600160a01b031916821790557f7dae230f18360d76a040c81f050aa14eb9d6dc7901b20fc5d855e2a20fe814d18280a280f35b60405163e6c4247b60e01b8152600490fd5b50346101d857806003193601126101d85760206040516127108152f35b50346101d85760203660031901126101d85760043581526007602052604090208054600182015460028301549192906102af60038301612989565b916102bc60048201612989565b926102c960058301612989565b936102d660068401612989565b946102e360078501612989565b6102ef60088601612989565b90600986015497600a87015493600b88015495600c89015497600d8a015499600e015460ff169a6040519e8f9e8f9061020093849383526020830152600160a01b6001900381166040830152606082019060a01c60ff169061035091612aa5565b608001528d0161035f91612a2b565b8c810360a08e015261037091612a2b565b8b810360c08d015261038191612a2b565b8a810360e08c015261039291612a2b565b8981036101008b01526103a491612a2b565b8881036101208a01526103b691612a2b565b956101408801526101608701526101808601526101a08501526101c084015215156101e08301520390f35b50346101d85760603660031901126101d857600435906103ff6128fe565b916044356001600160401b0381116105d05761041f903690600401612a69565b61042a929192612cae565b610432612e91565b6001600160a01b0385811693908415610245578386526020966007885260408720908154156105be5760ff600e83015416156105ac57600b8201805490600a84015482101561059a576001820180921161058657556040516301aa1ff560e11b8152908990829081906104ae906004878101918c918501612c87565b03818b877f0000000000000000000000000000000000000000000000000000000000000000165af197881561057a579761053b575b509161052c8795949260027f07e500b2021a7cb1f8a193a04afb26a0f19af1d3a41149b1e0689d5c6f9d16649501541691604051938493845260408b8501526040840191612bc9565b0390a460018055604051908152f35b9650939290918787813d8311610573575b6105568183612968565b8101031261056f5795519592939092919061052c6104e3565b5f80fd5b503d61054c565b604051903d90823e3d90fd5b634e487b7160e01b8a52601160045260248afd5b6040516352df9fe560e01b8152600490fd5b604051631a319ff960e31b8152600490fd5b604051631ab4dc1760e31b8152600490fd5b8280fd5b50346101d85760403660031901126101d8576106116004356105f46128fe565b908084528360205261060c6001604086200154612d82565b612e1f565b5080f35b50346101d857806003193601126101d85760206040517fe1dcbdb91df27212a29bc27177c840cf2f819ecf2187432e1fac86c2dd5dfca98152f35b50602090816003193601126101d85760043561066a612e91565b80825260078352604082208054156105be5760ff600e82015416156105ac57600b8101805490600a83015482101561059a576009830154340361082f576001820180921161081b57556002548060a01c80340290348204143415171561081b576127109004803403913483116108075781806107ee575b505034036107d0575b506040516301aa1ff560e11b81526001600160a01b039190858180610719600480870190899033908501612c87565b038188877f0000000000000000000000000000000000000000000000000000000000000000165af194851561057a579461079e575b506002015460408051929091166001600160a01b031682523460208301523392849290917f1cf13ca56e5815607ba9463ac5052bd64a363d0e0ed06cb4b1124138889cfeb691908190810161052c565b9350908484813d83116107c9575b6107b68183612968565b8101031261056f5792519290600261074e565b503d6107ac565b60028201546107e891906001600160a01b0316612eb4565b5f6106ea565b610800916001600160a01b0316612eb4565b5f816106e1565b634e487b7160e01b86526011600452602486fd5b634e487b7160e01b85526011600452602485fd5b60405163788a686f60e01b8152600490fd5b50346101d857806003193601126101d8576040517f00000000000000000000000000000000000000000000000000000000000000006001600160a01b03168152602090f35b50346101d85760203660031901126101d85760043581526006602052604090208054600182015490916108bb60028201612989565b6108c760038301612989565b916108d460048201612989565b6108e060058301612989565b6108ec60068401612989565b916108f960078501612989565b9360080154956001600160401b0395604051998a99610180918b52600160a01b60019003811660208c015260408b019060a01c60ff169061093991612aa5565b8060608b0152890161094a91612a2b565b88810360808a015261095b91612a2b565b87810360a089015261096c91612a2b565b86810360c088015261097d91612a2b565b85810360e087015261098e91612a2b565b8481036101008601526109a091612a2b565b916109b2610120850160ff8316612ab2565b818160081c1661014085015260481c166101608301520390f35b50346101d857806003193601126101d8576020600454604051908152f35b50346101d85760403660031901126101d857600435602435818352602091600783526040842092604051610a1d8161294c565b8454815260018501548282015260028501546001600160a01b0380821660408401529190610a549060a01c60ff1660608301612ae1565b610a6060038701612989565b6080820152610a7160048701612989565b60a0820152610a8260058701612989565b60c0820152610a9360068701612989565b9160e08201928352610aa760078801612989565b91610100810192835260ff600e610ac060088b01612989565b9961012084019a8b526009810154610140850152600a810154610160850152600b810154610180850152600c8101546101a0850152600d8101546101c085015201541615156101e082015251156105be576040516331a9108f60e11b8152600481018790527f00000000000000000000000000000000000000000000000000000000000000008216918582602481865afa918215610c8c578a92610c50575b5033911603610c02578360249160405192838092631543976d60e01b82528a60048301525afa8015610c455785918991610c14575b5003610c0257610bfc610bed7f7a2c7dd45a8bd368d1db12234e6dc563033c5d59e1f281a06a3dcdcd0edded9594610be094519351985198604051958695606087526060870190612a2b565b9185830390860152612a2b565b82810360408401523397612a2b565b0390a480f35b60405163baf3f0f760e01b8152600490fd5b809250858092503d8311610c3e575b610c2d8183612968565b8101031261056f578490515f610b94565b503d610c23565b6040513d8a823e3d90fd5b9091508581813d8311610c85575b610c688183612968565b81010312610c8157518181168103610c8157905f610b5f565b8980fd5b503d610c5e565b6040513d8c823e3d90fd5b50346101d85760a03660031901126101d857600435610cb46128fe565b60443591606435916084356001600160401b038111610db857610cdb903690600401612a69565b939094610ce6612cae565b838752600760205260408720958654156105be576001600160a01b039384169687156102455782156105be5783610d74575b907ffd20baaced31d1f107745c57f705d19fdeb1d9ddce302a41994c770e9314d48494600283600c610bfc9501610d50878254612c7a565b90550154169660405194859485526020850152606060408501526060840191612bc9565b90838952600860205260ff60408a205416610da657838952600860205260408920805460ff1916600117905590610d18565b604051635cf8829160e01b8152600490fd5b8580fd5b50346101d857806003193601126101d857602090604051908152f35b50346101d857602090816003193601126101d8576001600160401b03916004358381116105d057610e0d903690600401612a69565b338452600583526040842094336001600160601b0360a01b875416178655600180870196828411610f9257610e4c84610e468a54612914565b8a612b62565b8697601f8511600114610f0f5790600291610ea086808b9c7fd4fd8fd455c3fdfe36126d7de16d1f208385873ff3250ddf3bc9b833ba2b7e359b9c91610f04575b508160011b915f199060031b1c19161790565b90555b01918254908260ff1983161780855560101c1615610edb575b505050610ed56040519283928684523396840191612bc9565b0390a280f35b69ffffffffffffffff00ff19164260101b69ffffffffffffffff000016171790555f8080610ebc565b90508901355f610e8d565b80885286882098601f198616895b818110610f7d5750996002939291877fd4fd8fd455c3fdfe36126d7de16d1f208385873ff3250ddf3bc9b833ba2b7e359a9b9c10610f64575b50508386811b019055610ea3565b8801355f19600389901b60f8161c191690555f80610f56565b888301358c559a85019a918901918901610f1d565b634e487b7160e01b87526041600452602487fd5b50346101d85760403660031901126101d8576040610fc26128fe565b91600435815280602052209060018060a01b03165f52602052602060ff60405f2054166040519015158152f35b50346101d85760603660031901126101d85760043561100c612a96565b6001600160401b03919060443583811161124a5761102e903690600401612a69565b91611037612cae565b8386526020946006602052604087209182541561123857600883019660ff885416916005831015611224576001809303610c02571561121a5761107c60025b89612bb1565b600784019183871161120657899061109e886110988654612914565b86612b62565b8192601f891160011461116e5750509361113061115d9461114c97946110fd8a8060ff977f455ae4a02bec249d0bf8dbbf8e291cde1f0d64ad3aaf4e0baa84f775bea956df9d9b9161116357508160011b915f199060031b1c19161790565b90555b8a5470ffffffffffffffff0000000000000000001916429190911660481b67ffffffffffffffff60481b16178a55565b6001808060a01b03910154169754169260405194858095612ab2565b604060208501526040840191612bc9565b0390a380f35b90508801355f610e8d565b848c5260208c20939250601f198916918c91905b8383106111ef5750505061115d9461114c979460ff948a98947f455ae4a02bec249d0bf8dbbf8e291cde1f0d64ad3aaf4e0baa84f775bea956df9b61113095106111d6575b5050600188811b019055611100565b8701355f1960038b901b60f8161c191690555f806111c7565b898501358655948501949381019391810191611182565b634e487b7160e01b8a52604160045260248afd5b61107c6003611076565b634e487b7160e01b8a52602160045260248afd5b604051633e55b3b960e21b8152600490fd5b8480fd5b50346101d85760203660031901126101d85760ff60406020926004358152600884522054166040519015158152f35b50346101d857806003193601126101d85760206040517fa49807205ce4d355092ef5a8a18f56e8913cf4a201fbe287825b095693c217758152f35b503461056f57608036600319011261056f576024356004356112d8612cae565b805f52600760205260405f208054156105be5782156105be57600d8101611300848254612c7a565b905560020180546001600160a01b03919082167f00000000000000000000000000000000000000000000000000000000000000008316803b1561056f5760405163f1542cfd60e01b81526001600160a01b03929092166004830152602482018690525f908290604490829084905af180156113e7576113b7575b5054169060405192835260643560208401527f6d9072989716c54c263702b9b1d7c6cb7bd086b0aefe0d81fe16cfe8b45679f6604060443594a480f35b9094506001600160401b0381116113d3576040525f935f61137a565b634e487b7160e01b5f52604160045260245ffd5b6040513d5f823e3d90fd5b3461056f575f36600319011261056f576002546040516001600160a01b039091168152602090f35b3461056f57602036600319011261056f576004356001600160601b0381169081810361056f57611448612d27565b61271082116114a257600280546001600160a01b031660a09290921b6001600160a01b0319169190911790556040519081527f7cb8fa1ce2fc1ff6556e563c0dcba551db7cdeb3f3b0911243692639ac80e94d90602090a1005b6040516358d620b360e01b8152600490fd5b3461056f57606036600319011261056f576114cd6128e8565b6114d5612a96565b6044356001600160401b03811161056f576114f4903690600401612a69565b90916114fe612cae565b6001600160a01b039384165f818152600560205260409020805491959091161580156115bb575b6115a9577f4bec5dc5898fc5251cceae4c18c4bd633c270f224dc51def48ae128d9f309ba59360026115a492019215159280546001600160401b0360501b4260501b169061ff008660081b169071ffffffffffffffff0000000000000000ff001916171790556040519384938452604060208501526040840191612bc9565b0390a2005b60405163cef1671f60e01b8152600490fd5b5060ff60028201541615611525565b3461056f57604036600319011261056f576004356115e6612a96565b6115ee612cae565b815f52600760205260405f208054156105be578161163e7f4559c01b7db5bb1d223800d874a57368a28670dce3343a3529d2b245080315a893600e602094019060ff801983541691151516179055565b6040519015158152a2005b3461056f57608036600319011261056f576064356001600160401b03811161056f57611679903690600401612a69565b90611682612cae565b6004355f52600660205260405f208054156112385760088101805460ff81166005811015611e1e57600203610c0257604435156105be5760049060ff191617905561172d6116d1600454612abf565b928360045560018301549461171560ff604051976116ee8961294c565b87895260043560208a01526001600160a01b03811660408a015260a01c1660608801612ae1565b61172160028501612989565b60808701523691612b08565b60a084015261173e60038201612989565b60c084015261174f60048201612989565b60e084015261176060058201612989565b61010084015261177260068201612989565b6101208401526024356101408401526044356101608401525f6101808401525f6101a08401525f6101c084015260016101e0840152815f52600760205260405f20835181556020840151600182015560018060a01b036040850151166001600160601b0360a01b60028301541617600282015560608401516003811015611e1e576118009060028301612b3e565b60808401518051906001600160401b0382116113d357611830826118276003860154612914565b60038601612b62565b602090601f8311600114611db05761185f92915f9183611bed575b50508160011b915f199060031b1c19161790565b60038201555b60a08401518051906001600160401b0382116113d3576118958261188c6004860154612914565b60048601612b62565b602090601f8311600114611d42576118c392915f9183611bed5750508160011b915f199060031b1c19161790565b60048201555b60c08401518051906001600160401b0382116113d3576118f9826118f06005860154612914565b60058601612b62565b602090601f8311600114611cd45761192792915f9183611bed5750508160011b915f199060031b1c19161790565b60058201555b60e08401518051906001600160401b0382116113d35761195d826119546006860154612914565b60068601612b62565b602090601f8311600114611c665761198b92915f9183611bed5750508160011b915f199060031b1c19161790565b60068201555b6101008401518051906001600160401b0382116113d3576119c2826119b96007860154612914565b60078601612b62565b602090601f8311600114611bf8576119f092915f9183611bed5750508160011b915f199060031b1c19161790565b60078201555b6101208401519384516001600160401b0381116113d357602095611a2a82611a216008870154612914565b60088701612b62565b8690601f8311600114611b795792611a6283600e946101e094611ab698975f92611b6e5750508160011b915f199060031b1c19161790565b60088501555b6101408101516009850155610160810151600a850155610180810151600b8501556101a0810151600c8501556101c0810151600d8501550151151591019060ff801983541691151516179055565b600181015490827f0bddeab2b0e40b6a227a8e8327cfe3dd62a60991f30ccf5a51e4496181ccaa2e604051611af18160ff8760a01c16612aa5565b60e08782015280611b63611b43611b32611b1160e0850160028a01612be9565b60243560408601526044356060860152848103608086015260048901612be9565b83810360a085015260058801612be9565b82810360c08401526001600160a01b039097169660043596600601612be9565b0390a4604051908152f35b015190508b8061184b565b90600885015f52875f20915f5b601f1985168110611bd65750836101e093611ab6979693600193600e97601f19811610611bbe575b505050811b016008850155611a68565b01515f1960f88460031b161c191690558a8080611bae565b919289600181928685015181550194019201611b86565b01519050878061184b565b9190600784015f5260205f20905f935b601f1984168510611c4b576001945083601f19811610611c33575b505050811b0160078201556119f6565b01515f1960f88460031b161c19169055868080611c23565b81810151835560209485019460019093019290910190611c08565b9190600684015f5260205f20905f935b601f1984168510611cb9576001945083601f19811610611ca1575b505050811b016006820155611991565b01515f1960f88460031b161c19169055868080611c91565b81810151835560209485019460019093019290910190611c76565b9190600584015f5260205f20905f935b601f1984168510611d27576001945083601f19811610611d0f575b505050811b01600582015561192d565b01515f1960f88460031b161c19169055868080611cff565b81810151835560209485019460019093019290910190611ce4565b9190600484015f5260205f20905f935b601f1984168510611d95576001945083601f19811610611d7d575b505050811b0160048201556118c9565b01515f1960f88460031b161c19169055868080611d6d565b81810151835560209485019460019093019290910190611d52565b9190600384015f5260205f20905f935b601f1984168510611e03576001945083601f19811610611deb575b505050811b016003820155611865565b01515f1960f88460031b161c19169055868080611ddb565b81810151835560209485019460019093019290910190611dc0565b634e487b7160e01b5f52602160045260245ffd5b3461056f57604036600319011261056f57611e4b6128fe565b336001600160a01b03821603611e6957611e6790600435612e1f565b005b60405163334bd91960e11b8152600490fd5b3461056f575f36600319011261056f576020600354604051908152f35b3461056f57604036600319011261056f57611e67600435611eb76128fe565b90805f525f602052611ecf600160405f200154612d82565b612da3565b3461056f575f36600319011261056f5760206040517ffaa623ff490ff9197b5ad863cd7f72b33e2e131994d09bd7260d7cd680faad798152f35b3461056f57602036600319011261056f576004355f525f6020526020600160405f200154604051908152f35b3461056f575f36600319011261056f57602060025460a01c604051908152f35b3461056f5760c036600319011261056f576003600435101561056f576024356001600160401b03811161056f57611f95903690600401612a69565b906044356001600160401b03811161056f57611fb5903690600401612a69565b916064356001600160401b03811161056f57611fd5903690600401612a69565b9490926084356001600160401b03811161056f57611ff7903690600401612a69565b92909560a4356001600160401b03811161056f57612019903690600401612a69565b969095335f52600560205260405f20604051908160c08101106001600160401b0360c0840111176113d35760c0820160405280546001600160a01b0316825260029061206760018201612989565b602084015201549060ff82161590811560408201526001600160401b03606082019360ff8160081c1615158552818160101c16608084015260501c1660a082015260018060a01b03905116159081156127f4575b506115a95751156127e257891580156127da575b80156127d2575b611238576120e5600354612abf565b988960035560405196876101808101106001600160401b036101808a0111176113d35761018088016040528a885233602089015261212860043560408a01612ae1565b612133368785612b08565b6060890152612143368689612b08565b6080890152612153368d86612b08565b60a0890152612163368284612b08565b60c0890152612173368b8b612b08565b60e08901526040518060208101106001600160401b036020830111176113d357602081016040525f815261010089015260016101208901526001600160401b0342166101408901525f6101608901528a5f52600660205260405f2097805189556001890160018060a01b036020830151166001600160601b0360a01b82541617815560408201516003811015611e1e5761220c91612b3e565b60608101518051906001600160401b0382116113d35761223c828c600261223581830154612914565b9101612b62565b601f9160208c6001858411146127685750819061226d935f9261254b5750508160011b915f199060031b1c19161790565b60028b01555b608082015180516001600160401b0381116113d35761229b818d600361223581830154612914565b60208c8483116001146126fe575081906122c9935f9261254b5750508160011b915f199060031b1c19161790565b60038b01555b60a082015180516001600160401b0381116113d3576122f7818d600461223581830154612914565b60208c84831160011461269457508190612325935f9261254b5750508160011b915f199060031b1c19161790565b60048b01555b60c082015180516001600160401b0381116113d357612353818d600561223581830154612914565b60208c84831160011461262a57508190612381935f9261254b5750508160011b915f199060031b1c19161790565b60058b01555b60e082015180516001600160401b0381116113d3576123af818d600661223581830154612914565b60208c8483116001146125c0575081906123dd935f9261254b5750508160011b915f199060031b1c19161790565b60068b01555b610100820151908151916001600160401b0383116113d35761240e838d600761223581830154612914565b60209183116001146125565761243a92915f918361254b5750508160011b915f199060031b1c19161790565b60078a01555b610120810151946005861015611e1e5760209d61251c7ff3b6eeb8ca35c32f4a7460f7dc16e95551dbafedcbbeb3b5eace30d4f24125569a8f9c9961250e612538996124fd8d600860a09f611b639f61252a9c6124aa61016092856001600160401b039501612bb1565b6101408101519484018054929091015170ffffffffffffffffffffffffffffffff00199092169490931b68ffffffffffffffff001693909317921660481b67ffffffffffffffff60481b16919091179055565b6040518d81529d8e9d8e0191612bc9565b918b830360208d0152612bc9565b9188830360408a0152612bc9565b918583036060870152612bc9565b8281036080840152600435973397612bc9565b015190505f8061184b565b90601f1983169160078d015f5260205f20925f5b8181106125a85750908460019594939210612590575b505050811b0160078a0155612440565b01515f1960f88460031b161c191690558f8080612580565b9293602060018192878601518155019501930161256a565b91926006601f19851693015f5260205f20925f5b81811061261257509084600195949392106125fa575b505050811b0160068b01556123e3565b01515f1960f88460031b161c191690555f80806125ea565b929360206001819287860151815501950193016125d4565b91926005601f19851693015f5260205f20925f5b81811061267c5750908460019594939210612664575b505050811b0160058b0155612387565b01515f1960f88460031b161c191690555f8080612654565b9293602060018192878601518155019501930161263e565b91926004601f19851693015f5260205f20925f5b8181106126e657509084600195949392106126ce575b505050811b0160048b015561232b565b01515f1960f88460031b161c191690555f80806126be565b929360206001819287860151815501950193016126a8565b91926003601f19851693015f5260205f20925f5b8181106127505750908460019594939210612738575b505050811b0160038b01556122cf565b01515f1960f88460031b161c191690555f8080612728565b92936020600181928786015181550195019301612712565b91926002601f19851693015f5260205f20925f5b8181106127ba57509084600195949392106127a2575b505050811b0160028b0155612273565b01515f1960f88460031b161c191690555f8080612792565b9293602060018192878601518155019501930161277c565b5087156120d6565b5085156120cf565b60405163133ba32b60e11b8152600490fd5b90508c6120bb565b3461056f57602036600319011261056f576001600160a01b038061281e6128e8565b165f52600560205260405f2090815416600261283c60018401612989565b9201546001600160401b03612863604051948594855260c0602086015260c0850190612a2b565b9160ff81161515604085015260ff8160081c1615156060850152818160101c16608085015260501c1660a08301520390f35b3461056f57602036600319011261056f576004359063ffffffff60e01b821680920361056f57602091637965db0b60e01b81149081156128d7575b5015158152f35b6301ffc9a760e01b149050836128d0565b600435906001600160a01b038216820361056f57565b602435906001600160a01b038216820361056f57565b90600182811c92168015612942575b602083101461292e57565b634e487b7160e01b5f52602260045260245ffd5b91607f1691612923565b61020081019081106001600160401b038211176113d357604052565b90601f801991011681019081106001600160401b038211176113d357604052565b9060405191825f825461299b81612914565b908184526020946001916001811690815f14612a0957506001146129cb575b5050506129c992500383612968565b565b5f90815285812095935091905b8183106129f15750506129c993508201015f80806129ba565b855488840185015294850194879450918301916129d8565b925050506129c994925060ff191682840152151560051b8201015f80806129ba565b91908251928382525f5b848110612a55575050825f602080949584010152601f8019910116010190565b602081830181015184830182015201612a35565b9181601f8401121561056f578235916001600160401b03831161056f576020838186019501011161056f57565b60243590811515820361056f57565b906003821015611e1e5752565b906005821015611e1e5752565b5f198114612acd5760010190565b634e487b7160e01b5f52601160045260245ffd5b6003821015611e1e5752565b6001600160401b0381116113d357601f01601f191660200190565b929192612b1482612aed565b91612b226040519384612968565b82948184528183011161056f578281602093845f960137010152565b906003811015611e1e57815460ff60a01b191660a09190911b60ff60a01b16179055565b601f8211612b6f57505050565b5f5260205f20906020601f840160051c83019310612ba7575b601f0160051c01905b818110612b9c575050565b5f8155600101612b91565b9091508190612b88565b906005811015611e1e5760ff80198354169116179055565b908060209392818452848401375f828201840152601f01601f1916010190565b80545f9392612bf782612914565b918282526020936001916001811690815f14612c5b5750600114612c1d575b5050505050565b90939495505f92919252835f2092845f945b838610612c4757505050500101905f80808080612c16565b805485870183015294019385908201612c2f565b60ff19168685015250505090151560051b010191505f80808080612c16565b91908201809211612acd57565b612cab939260609260018060a01b0316825260208201528160408201520190612be9565b90565b335f9081527fe2cba31f4bc11a0ffdcf6285f6faa577a0ac170ef92004a78f001343d31b3b9760205260409020547ffaa623ff490ff9197b5ad863cd7f72b33e2e131994d09bd7260d7cd680faad799060ff1615612d095750565b6044906040519063e2517d3f60e01b82523360048301526024820152fd5b335f9081527f9e5c930214a7bc8a78d251e617445bcdba028aed2ede5828cc6cd6c8261656f560205260409020547fe1dcbdb91df27212a29bc27177c840cf2f819ecf2187432e1fac86c2dd5dfca99060ff1615612d095750565b805f525f60205260405f20335f5260205260ff60405f20541615612d095750565b90815f525f60205260405f209060018060a01b031690815f5260205260ff60405f205416155f14612e1957815f525f60205260405f20815f5260205260405f20600160ff1982541617905533917f2f8788117e7eff1d82e926ec794901d17c78024a50270940304540a733656f0d5f80a4600190565b50505f90565b90815f525f60205260405f209060018060a01b031690815f5260205260ff60405f2054165f14612e1957815f525f60205260405f20815f5260205260405f2060ff19815416905533917ff6391f5c32d9c69d2a47ea670b442974b53935d1edc7fd64eb21e047a839171b5f80a4600190565b600260015414612ea2576002600155565b604051633ee5aeb560e01b8152600490fd5b5f918291829182916001600160a01b03165af13d15612f08573d612ed781612aed565b90612ee56040519283612968565b81525f60203d92013e5b15612ef657565b6040516312171d8360e31b8152600490fd5b612eef56fea2646970667358221220122a62afa660c4d8d2384852c60a4046432143eb3ee7a6ef439811acf452688764736f6c634300081700332f8788117e7eff1d82e926ec794901d17c78024a50270940304540a733656f0dad3228b676f7d3cd4284a5443f17f1962b36e491b30a40b2405849e597ba5fb5","linkReferences":{}},"methodIdentifiers":{"ADMIN_ROLE()":"75b238fc","AI_AGENT_ROLE()":"25b8e7eb","BPS_DENOMINATOR()":"e1a45218","DEFAULT_ADMIN_ROLE()":"a217fddf","TREASURY_ROLE()":"d11a57ec","agentAirdropTicket(uint256,address,string)":"db463733","agentCreateListingFromSubmission(uint256,uint256,uint256,string)":"45333971","artists(address)":"069dab8f","bansheeToken()":"fd6ab5bc","getRoleAdmin(bytes32)":"248a9ca3","grantRole(bytes32,address)":"2f2ff15d","hasRole(bytes32,address)":"91d14854","listings(uint256)":"de74e57b","mintArtistPerformanceReward(uint256,uint256,uint256,bytes32)":"6ce2348a","nextListingId()":"aaccf1ec","nextSubmissionId()":"35b96901","platformFeeBps()":"22dcd13e","purchaseTicket(uint256)":"b948348c","recordPerformance(uint256,address,uint256,bytes32,string)":"a9276215","registerArtist(string)":"9355d419","renounceRole(bytes32,address)":"36568abe","requestGreenfieldAccess(uint256,uint256)":"a986afd0","reviewSubmission(uint256,bool,string)":"8ff0346e","revokeRole(bytes32,address)":"d547741f","setArtistVerification(address,bool,string)":"5c434ad3","setListingActive(uint256,bool)":"5549756c","setPlatformFeeBps(uint96)":"60b2cf10","setTreasury(address)":"f0f44260","submissions(uint256)":"ad73349e","submitContent(uint8,string,string,string,string,string)":"17c1f709","supportsInterface(bytes4)":"01ffc9a7","ticketNFT()":"b393391b","treasury()":"61d027b3","usedPerformanceProofs(bytes32)":"80951c56"},"id":41}