{"abi":[{"type":"constructor","inputs":[{"name":"admin","type":"address","internalType":"address"}],"stateMutability":"nonpayable"},{"type":"function","name":"DEFAULT_ADMIN_ROLE","inputs":[],"outputs":[{"name":"","type":"bytes32","internalType":"bytes32"}],"stateMutability":"view"},{"type":"function","name":"REWARD_MINTER_ROLE","inputs":[],"outputs":[{"name":"","type":"bytes32","internalType":"bytes32"}],"stateMutability":"view"},{"type":"function","name":"allowance","inputs":[{"name":"owner","type":"address","internalType":"address"},{"name":"spender","type":"address","internalType":"address"}],"outputs":[{"name":"","type":"uint256","internalType":"uint256"}],"stateMutability":"view"},{"type":"function","name":"approve","inputs":[{"name":"spender","type":"address","internalType":"address"},{"name":"value","type":"uint256","internalType":"uint256"}],"outputs":[{"name":"","type":"bool","internalType":"bool"}],"stateMutability":"nonpayable"},{"type":"function","name":"balanceOf","inputs":[{"name":"account","type":"address","internalType":"address"}],"outputs":[{"name":"","type":"uint256","internalType":"uint256"}],"stateMutability":"view"},{"type":"function","name":"decimals","inputs":[],"outputs":[{"name":"","type":"uint8","internalType":"uint8"}],"stateMutability":"view"},{"type":"function","name":"getRoleAdmin","inputs":[{"name":"role","type":"bytes32","internalType":"bytes32"}],"outputs":[{"name":"","type":"bytes32","internalType":"bytes32"}],"stateMutability":"view"},{"type":"function","name":"grantRole","inputs":[{"name":"role","type":"bytes32","internalType":"bytes32"},{"name":"account","type":"address","internalType":"address"}],"outputs":[],"stateMutability":"nonpayable"},{"type":"function","name":"hasRole","inputs":[{"name":"role","type":"bytes32","internalType":"bytes32"},{"name":"account","type":"address","internalType":"address"}],"outputs":[{"name":"","type":"bool","internalType":"bool"}],"stateMutability":"view"},{"type":"function","name":"mintPerformanceReward","inputs":[{"name":"artist","type":"address","internalType":"address"},{"name":"amount","type":"uint256","internalType":"uint256"}],"outputs":[],"stateMutability":"nonpayable"},{"type":"function","name":"name","inputs":[],"outputs":[{"name":"","type":"string","internalType":"string"}],"stateMutability":"view"},{"type":"function","name":"renounceRole","inputs":[{"name":"role","type":"bytes32","internalType":"bytes32"},{"name":"callerConfirmation","type":"address","internalType":"address"}],"outputs":[],"stateMutability":"nonpayable"},{"type":"function","name":"revokeRole","inputs":[{"name":"role","type":"bytes32","internalType":"bytes32"},{"name":"account","type":"address","internalType":"address"}],"outputs":[],"stateMutability":"nonpayable"},{"type":"function","name":"supportsInterface","inputs":[{"name":"interfaceId","type":"bytes4","internalType":"bytes4"}],"outputs":[{"name":"","type":"bool","internalType":"bool"}],"stateMutability":"view"},{"type":"function","name":"symbol","inputs":[],"outputs":[{"name":"","type":"string","internalType":"string"}],"stateMutability":"view"},{"type":"function","name":"totalSupply","inputs":[],"outputs":[{"name":"","type":"uint256","internalType":"uint256"}],"stateMutability":"view"},{"type":"function","name":"transfer","inputs":[{"name":"to","type":"address","internalType":"address"},{"name":"value","type":"uint256","internalType":"uint256"}],"outputs":[{"name":"","type":"bool","internalType":"bool"}],"stateMutability":"nonpayable"},{"type":"function","name":"transferFrom","inputs":[{"name":"from","type":"address","internalType":"address"},{"name":"to","type":"address","internalType":"address"},{"name":"value","type":"uint256","internalType":"uint256"}],"outputs":[{"name":"","type":"bool","internalType":"bool"}],"stateMutability":"nonpayable"},{"type":"event","name":"Approval","inputs":[{"name":"owner","type":"address","indexed":true,"internalType":"address"},{"name":"spender","type":"address","indexed":true,"internalType":"address"},{"name":"value","type":"uint256","indexed":false,"internalType":"uint256"}],"anonymous":false},{"type":"event","name":"RoleAdminChanged","inputs":[{"name":"role","type":"bytes32","indexed":true,"internalType":"bytes32"},{"name":"previousAdminRole","type":"bytes32","indexed":true,"internalType":"bytes32"},{"name":"newAdminRole","type":"bytes32","indexed":true,"internalType":"bytes32"}],"anonymous":false},{"type":"event","name":"RoleGranted","inputs":[{"name":"role","type":"bytes32","indexed":true,"internalType":"bytes32"},{"name":"account","type":"address","indexed":true,"internalType":"address"},{"name":"sender","type":"address","indexed":true,"internalType":"address"}],"anonymous":false},{"type":"event","name":"RoleRevoked","inputs":[{"name":"role","type":"bytes32","indexed":true,"internalType":"bytes32"},{"name":"account","type":"address","indexed":true,"internalType":"address"},{"name":"sender","type":"address","indexed":true,"internalType":"address"}],"anonymous":false},{"type":"event","name":"Transfer","inputs":[{"name":"from","type":"address","indexed":true,"internalType":"address"},{"name":"to","type":"address","indexed":true,"internalType":"address"},{"name":"value","type":"uint256","indexed":false,"internalType":"uint256"}],"anonymous":false},{"type":"error","name":"AccessControlBadConfirmation","inputs":[]},{"type":"error","name":"AccessControlUnauthorizedAccount","inputs":[{"name":"account","type":"address","internalType":"address"},{"name":"neededRole","type":"bytes32","internalType":"bytes32"}]},{"type":"error","name":"ERC20InsufficientAllowance","inputs":[{"name":"spender","type":"address","internalType":"address"},{"name":"allowance","type":"uint256","internalType":"uint256"},{"name":"needed","type":"uint256","internalType":"uint256"}]},{"type":"error","name":"ERC20InsufficientBalance","inputs":[{"name":"sender","type":"address","internalType":"address"},{"name":"balance","type":"uint256","internalType":"uint256"},{"name":"needed","type":"uint256","internalType":"uint256"}]},{"type":"error","name":"ERC20InvalidApprover","inputs":[{"name":"approver","type":"address","internalType":"address"}]},{"type":"error","name":"ERC20InvalidReceiver","inputs":[{"name":"receiver","type":"address","internalType":"address"}]},{"type":"error","name":"ERC20InvalidSender","inputs":[{"name":"sender","type":"address","internalType":"address"}]},{"type":"error","name":"ERC20InvalidSpender","inputs":[{"name":"spender","type":"address","internalType":"address"}]}],"bytecode":{"object":"0x6080346200036657601f1990601f906001600160401b0362000f4d3881900384810186168401838111858210176200027557849282916040528339602093849181010312620003665751936001600160a01b038516918286036200036657620000676200036a565b94600786526642616e7368656560c81b85870152620000856200036a565b95600787526642414e5348454560c81b86880152805191838311620002755760039283546001938482811c921680156200035b575b8a83101462000347578184849311620002f4575b50899084831160011462000295575f9262000289575b50505f1982861b1c191690831b1783555b8751938411620002755760049788548381811c911680156200026a575b8982101462000257578281116200020f575b5087918511600114620001aa57849550908492915f956200019e575b50501b925f19911b1c19161783555b15620001715762000160836200038a565b50604051610b2090816200040d8239f35b60405162461bcd60e51b8152918201526007602482015266061646d696e3d360cc1b604482015260649150fd5b015193505f8062000140565b929194841692885f5284885f20945f5b8a89838310620001f75750505010620001dd575b50505050811b0183556200014f565b01519060f8845f19921b161c191690555f808080620001ce565b868601518955909701969485019488935001620001ba565b895f52885f208380880160051c8201928b89106200024d575b0160051c019084905b8281106200024157505062000124565b5f815501849062000231565b9250819262000228565b60228a634e487b7160e01b5f525260245ffd5b90607f169062000112565b634e487b7160e01b5f52604160045260245ffd5b015190505f80620000e4565b908886941691875f528b5f20925f5b8d828210620002dd5750508411620002c5575b505050811b018355620000f5565b01515f1983881b60f8161c191690555f8080620002b7565b8385015186558997909501949384019301620002a4565b909150855f52895f208480850160051c8201928c86106200033d575b918791869594930160051c01915b8281106200032e575050620000ce565b5f81558594508791016200031e565b9250819262000310565b634e487b7160e01b5f52602260045260245ffd5b91607f1691620000ba565b5f80fd5b60408051919082016001600160401b038111838210176200027557604052565b6001600160a01b03165f8181525f8051602062000f2d833981519152602052604090205460ff1662000407575f8181525f8051602062000f2d83398151915260205260408120805460ff191660011790553391907f2f8788117e7eff1d82e926ec794901d17c78024a50270940304540a733656f0d8180a4600190565b505f9056fe6080604081815260049182361015610015575f80fd5b5f3560e01c90816301ffc9a7146108195750806306fdde031461073e578063095ea7b31461069657806318160ddd1461067857806323b872dd14610586578063248a9ca31461055c5780632f2ff15d14610534578063313ce5671461051957806336568abe146104d557806370a082311461049f57806391d148541461045b57806395d89b411461033c578063a217fddf14610322578063a9059cbb146102f2578063d547741f146102b6578063dd62ed3e1461026d578063de9bb635146102335763f1542cfd146100e5575f80fd5b3461022f578060031936011261022f576100fd6108b2565b90602435907f75a48258836e17db5941acb34b4037c112b76781efae1ea4e325210b38c098c792835f5260209360058552825f20335f52855260ff835f2054161561021157506001600160a01b03169384156101e55782156101b957600254908382018092116101a657506002555f8481528084528181208054840190559051918252917fddf252ad1be2c89b69c2b068fc378daa952ba7f163c4a11628f55a4df523b3ef91a3005b601190634e487b7160e01b5f525260245ffd5b83606492519162461bcd60e51b835282015260086024820152670616d6f756e743d360c41b6044820152fd5b83606492519162461bcd60e51b8352820152600860248201526706172746973743d360c41b6044820152fd5b825163e2517d3f60e01b815233818801526024810191909152604490fd5b5f80fd5b503461022f575f36600319011261022f57602090517f75a48258836e17db5941acb34b4037c112b76781efae1ea4e325210b38c098c78152f35b503461022f578060031936011261022f576020906102896108b2565b6102916108c8565b9060018060a01b038091165f5260018452825f2091165f528252805f20549051908152f35b503461022f578060031936011261022f576102f091356102eb60016102d96108c8565b93835f5260056020525f2001546109b8565b610a76565b005b503461022f578060031936011261022f5760209061031b6103116108b2565b60243590336108de565b5160018152f35b503461022f575f36600319011261022f57602090515f8152f35b503461022f575f36600319011261022f578051905f835460018160011c9060018316928315610451575b602093848410811461043e5783885290811561042257506001146103ce575b505050829003601f01601f191682019267ffffffffffffffff8411838510176103bb57508291826103b792528261086b565b0390f35b604190634e487b7160e01b5f525260245ffd5b5f878152929350837f8a35acfbc15ff81a39ae7d344fd709f28e8600b4aa8c65c6b64bfe7fe36bd19b5b83851061040e57505050508301015f8080610385565b8054888601830152930192849082016103f8565b60ff1916878501525050151560051b84010190505f8080610385565b602289634e487b7160e01b5f525260245ffd5b91607f1691610366565b503461022f578060031936011261022f576020916104776108c8565b90355f5260058352815f209060018060a01b03165f52825260ff815f20541690519015158152f35b503461022f57602036600319011261022f576020906001600160a01b036104c46108b2565b165f525f8252805f20549051908152f35b503461022f578060031936011261022f576104ee6108c8565b90336001600160a01b0383160361050a57506102f09135610a76565b5163334bd91960e11b81529050fd5b503461022f575f36600319011261022f576020905160128152f35b503461022f578060031936011261022f576102f0913561055760016102d96108c8565b6109f8565b503461022f57602036600319011261022f57602091355f52600582526001815f2001549051908152f35b50903461022f57606036600319011261022f576105a16108b2565b6105a96108c8565b906044359260018060a01b038216805f526001602052855f20335f52602052855f2054915f1983106105e4575b60208761031b8888886108de565b85831061064c57811561063657331561062057505f9081526001602090815286822033835281529086902091859003909155829061031b6105d6565b6024905f885191634a1406b160e11b8352820152fd5b6024905f88519163e602df0560e01b8352820152fd5b8651637dc7a0d960e11b8152339181019182526020820193909352604081018690528291506060010390fd5b503461022f575f36600319011261022f576020906002549051908152f35b503461022f578060031936011261022f576106af6108b2565b602435903315610728576001600160a01b03169081156107125760209350335f5260018452825f20825f52845280835f205582519081527f8c5be1e5ebec7d5bd14f71427d1e84f3dd0314c0f7b2291e5b200ac8c7c3b925843392a35160018152f35b8251634a1406b160e11b81525f81860152602490fd5b825163e602df0560e01b81525f81860152602490fd5b503461022f575f36600319011261022f578051905f60035460018160011c906001831692831561080f575b602093848410811461043e5783885290811561042257506001146107b957505050829003601f01601f191682019267ffffffffffffffff8411838510176103bb57508291826103b792528261086b565b60035f908152929350837fc2575a0e9e593c00f959f8c92f12db2869c3395a3b0502d05e2516446f71f85b5b8385106107fb57505050508301015f8080610385565b8054888601830152930192849082016107e5565b91607f1691610769565b833461022f57602036600319011261022f57359063ffffffff60e01b821680920361022f57602091637965db0b60e01b811490811561085a575b5015158152f35b6301ffc9a760e01b14905083610853565b602080825282518183018190529093925f5b82811061089e57505060409293505f838284010152601f8019910116010190565b81810186015184820160400152850161087d565b600435906001600160a01b038216820361022f57565b602435906001600160a01b038216820361022f57565b916001600160a01b038084169283156109a0571692831561098857825f525f60205260405f2054908282106109565750817fddf252ad1be2c89b69c2b068fc378daa952ba7f163c4a11628f55a4df523b3ef92602092855f525f84520360405f2055845f5260405f20818154019055604051908152a3565b60405163391434e360e21b81526001600160a01b03919091166004820152602481019190915260448101829052606490fd5b60405163ec442f0560e01b81525f6004820152602490fd5b604051634b637e8f60e11b81525f6004820152602490fd5b805f52600560205260405f20335f5260205260ff60405f205416156109da5750565b6044906040519063e2517d3f60e01b82523360048301526024820152fd5b90815f52600560205260405f209060018060a01b031690815f5260205260ff60405f205416155f14610a7057815f52600560205260405f20815f5260205260405f20600160ff1982541617905533917f2f8788117e7eff1d82e926ec794901d17c78024a50270940304540a733656f0d5f80a4600190565b50505f90565b90815f52600560205260405f209060018060a01b031690815f5260205260ff60405f2054165f14610a7057815f52600560205260405f20815f5260205260405f2060ff19815416905533917ff6391f5c32d9c69d2a47ea670b442974b53935d1edc7fd64eb21e047a839171b5f80a460019056fea26469706673582212209e3577372b5171cd43dd10a585e4a52bd6cf741f746de1ed14f57f241285c71a64736f6c6343000817003305b8ccbb9d4d8fb16ea74ce3c29a41f1b461fbdaff4714a0d9a8eb05499746bc","linkReferences":{}},"methodIdentifiers":{"DEFAULT_ADMIN_ROLE()":"a217fddf","REWARD_MINTER_ROLE()":"de9bb635","allowance(address,address)":"dd62ed3e","approve(address,uint256)":"095ea7b3","balanceOf(address)":"70a08231","decimals()":"313ce567","getRoleAdmin(bytes32)":"248a9ca3","grantRole(bytes32,address)":"2f2ff15d","hasRole(bytes32,address)":"91d14854","mintPerformanceReward(address,uint256)":"f1542cfd","name()":"06fdde03","renounceRole(bytes32,address)":"36568abe","revokeRole(bytes32,address)":"d547741f","supportsInterface(bytes4)":"01ffc9a7","symbol()":"95d89b41","totalSupply()":"18160ddd","transfer(address,uint256)":"a9059cbb","transferFrom(address,address,uint256)":"23b872dd"},"id":43}